:020000040000FA
:10000000B0020010790100008101000083010000AE
:100010008501000087010000890100000000000048
:100020000000000000000000000000008B01000044
:100030008D010000000000008F0100009101000010
:100040009301000093010000930100009301000060
:100050009301000093010000930100009301000050
:100060009301000093010000930100009301000040
:100070009301000093010000930100009301000030
:100080009301000093010000930100009301000020
:100090009301000093010000930100009301000010
:1000A0009301000093010000930100009301000000
:1000B00093010000930100009301000093010000F0
:1000C00093010000930100009301000000F002F88A
:1000D00000F042F80AA090E8000C82448344AAF1A0
:1000E0000107DA4501D100F037F8AFF2090EBAE89E
:1000F0000F0013F0010F18BFFB1A43F0010318475C
:10010000680E0000880E0000103A24BF78C878C13D
:10011000FAD8520724BF30C830C144BF04680C600D
:10012000704700000023002400250026103A28BF55
:1001300078C1FBD8520728BF30C148BF0B60704759
:10014000642900F0F583732900F0B484002070471F
:100150001FB51FBD10B510BD00F0B0FC1146FFF774
:10016000F7FF00F053F900F0B9F803B4FFF7F2FF1E
:1001700003BC00F0BDF8000009488047094800476B
:10018000FEE7FEE7FEE7FEE7FEE7FEE7FEE7FEE747
:10019000FEE7FEE704480549034A054B70470000A7
:1001A00005070000CD000000B0000010B0020010F4
:1001B000B000001053EA020C00F069802DE9F04B0A
:1001C0004FF00006002B1FBFB3FA83F503FA05F4C6
:1001D00024FA05F65E4012BF1643B2FA82F502FA1F
:1001E00005F4C5F120051EBF22FA05FC44EA0C0403
:1001F000203556EA044C4FEA144418BF641C4FF0F3
:1002000000084FF00009904271EB030C39D300292C
:1002100019BFB1FA81F701FA07F6B0FA80F700FAD0
:1002200007F6C7F120071EBF20FA07FC46EA0C06B6
:100230002037B6FBF4FCA7EB0507103F07F01F0BB8
:10024000CBF120060CFA0BFB2CFA06F644BFB346A2
:100250000026202FA4BF5E464FF0000B5BEA060C81
:1002600008BF4FF0010B19EB0B09ABFB027C48EB0D
:100270000608C01B06FB02CC0BFB03CC71EB0C0188
:10028000C1E70B46024641464846BDE8F08B13B530
:100290004FF000004FF00001AFF30080BDE81C40BC
:1002A000704700000FB41CB5074B06AA7B44694693
:1002B0000090059800F0D9FB0020694600F009F88D
:1002C0001CBC5DF814FB0000230000007047704761
:1002D00070470A6802F8010B0A6070470446AFF3E2
:1002E00000802046FFF741FF004870475000001093
:1002F00001491820ABBEFEE726000200FFFFFFFF0A
:100300008449096841F40041824A11604FF4004178
:100310009161002000E0401C42F210718842FADB3B
:100320007047002100E0491CB1EB400FFBD3704740
:1003300000B579480068774948617848007810B975
:100340004815C86103E04FF48070724988614FF42A
:1003500000707049886141F28830FFF7E2FF4FF486
:1003600000706C49C8616E48FFF7DBFF00BD00B547
:100370006A480078012801D100200AE06948006835
:10038000302803D067480068202801D1012000E010
:100390000020654908706348007800F0F0005E496D
:1003A0000860FFF7C5FF6048007858B95D480078DD
:1003B00000F00F0058490860084600680001086016
:1003C000FFF7B6FF00BD00B5002306E05748C05C4C
:1003D00054490860FFF7CBFF5B1C5448C05C002801
:1003E000F4D100BD00B500204C490870002307E09F
:1003F0004F4850F823004B490860FFF7B8FF5B1CDB
:10040000092BF5D301204549087000BD1FB500F048
:1004100079F900F0A3F84748406840F48040454926
:1004200048604548006840F480504449C1F8C40021
:100430004FF47C7037490860FFF7D4FFFFF7C3FF24
:1004400067E000260A27002519E03D483D4908607D
:1004500000BF3C484068044610F0004FF9D03948CE
:1004600044682409204600F0ABFC8046314600F089
:100470004BFB06464FF47A70FFF753FF6D1CBD42ED
:10048000E3D3384600F084FC81464946304600F00C
:100490009DFB804600F05CFC04460A2C05D22A4AEB
:1004A0002AA16846FFF7FEFE04E0224628A168461E
:1004B000FFF7F8FEC0201B490860002017490870AC
:1004C000FFF755FF4FF47A50FFF72BFF002021492B
:1004D00008600120114908700CE01E4909681DF8E8
:1004E000010010490860FFF742FF1A480068401CED
:1004F00018490860174909681DF801000028ECD167
:10050000B4F5967F01D9FFF7FBFE1348FFF709FF0B
:1005100000BF96E700C00920280000102C00001042
:10052000C0270900240000102D0000102E0000102C
:100530000000001000C00240C4C00F4000C00F40C7
:100540000100200100400340390000102573000025
:10055000256400004400001040420F002DE9F047E0
:10056000B1480068C0F3016003287CD1AF4800683F
:1005700010F0030006D0012833D002285FD00328F2
:100580002ED100E000BFA8480068C0F3074000F18A
:1005900001044FF00201A648D0F88800C0F30E0015
:1005A00000F10100A1FB0001A24B4FF0000CA0FBE9
:1005B000037901FB039100FB0C1122466346384688
:1005C000FFF7F8FD05469C480068C0B200F1010441
:1005D00022464FF000032846FFF7ECFD97490860DC
:1005E0005DE091480068C0F3074000F101044FF05E
:1005F00002018F48D0F88800C0F30E0000F101001E
:10060000A1FB00108E4A4FF0000CA1FB027900FB09
:10061000029001FB0C01224663463846FFF7CAFDF3
:10062000054685480068C0B200F1010422464FF03B
:1006300000032846FFF7BEFD804908602FE07A4896
:100640000068C0F3074000F101044FF00201784850
:10065000D0F88800C0F30E0000F10100A1FB0012E9
:100660004FF4004000E01BE04FF00003A1FB0079D5
:1006700002FB009001FB030122463846FFF79AFD7A
:1006800005466D480068C0B200F1010422464FF0F3
:1006900000032846FFF78EFD6849086000BF2FE081
:1006A0006248006810F0030006D0012810D002282C
:1006B00019D0032823D100E000BF5F480068C0B212
:1006C00000F101005B49B1FBF0F05C49086016E005
:1006D00059480068C0B200F101005949B1FBF0F07F
:1006E000564908600BE054480068C0B200F10100B0
:1006F0004FF40041B1FBF0F05049086000BF00BF6B
:10070000BDE8F08720204F4908604948D0F8A00193
:1007100010F0200F05D000BF4A48006810F0400FCD
:10072000FAD00320444908604FF000004049C1F866
:10073000A801454908604FF001003C490860434862
:10074000434908604FF0AA00424908604FF0550045
:1007500008604FF00100404908604FF0AA003D4991
:1007600008604FF055003249C1F88C0000BF2E4898
:10077000006810F0806FFAD00320374908604FF00E
:10078000AA002B49C1F88C004FF055003149086090
:1007900000BF2548006800F04070B0F1407FF8D1FC
:1007A00023202E4908604FF0AA002149C1F8AC006F
:1007B0004FF055002A4908604FF0010029490860B0
:1007C0004FF0AA00264908604FF055001849C1F8BB
:1007D000AC0000BF2448006810F4806FFAD00320FA
:1007E000204908604FF0AA001149C1F8AC004FF051
:1007F00055001B49086000BF1B48006800F44070AA
:10080000B0F5407FF8D11948194908604FF0000051
:100810000749C1F8C8010846006820F4704040F458
:10082000804008607047000088C00F400CC10F4036
:1008300000C00F4000093D0004C10F404C000010F3
:10084000001BB700A0C10F40ACC10F406300050002
:1008500084C00F408CC00F4080C00F40A4C00F4028
:10086000ACC00F40A0C00F40A8C00F40DE872804D6
:10087000C4C00F402DE9F0410E460446002020621E
:100880002046E168884730B3252805D0D4E9012106
:100890009047206A401CF2E7E1682046002788471D
:1008A000050018D0A5F14100192802D820354FF4D1
:1008B00000673246294620462760FFF741FC40B1D9
:1008C000012804D0F61D26F007060836D8E7361DA5
:1008D000D6E72846DAE7206ABDE8F08170B50C4615
:1008E0000546012A05D02878800600D5EA6900234C
:1008F00002E0012305E05B1C934202D2E05C002889
:10090000F9D1A869E618C01AA861286A18442862B3
:100910002846AFF3008004E0D5E9012114F8010B6B
:100920009047B442F8D32846AFF3008070BD000072
:100930002DE9F0410646002410687529314616A5B8
:1009400011D0AFF30080002803DAC0F1000013A536
:1009500007E031688A0701D511A502E0490704D5EF
:1009600010A5012401E0AFF3008000210A2306F165
:10097000240707E0B0FBF3F203FB12003030785499
:100980001046491C0028F5D123462A463046BDE8CA
:10099000F04100F009B80000000000002D00000048
:1009A0002B000000200000002DE9F0470D4699467D
:1009B0009246044600F124080168880604D5E069DF
:1009C00021F01001216000E00120A84202DDA0EB2F
:1009D000050700E00027A16907EB050202EB09000B
:1009E000A1EB0000A0612078C00602D42046AFF33E
:1009F0000080002608E0D4E901211AF8060090479B
:100A0000206A401C761C20624E45F4DB2078C0062C
:100A10000AD52046AFF3008006E0D4E9012130205A
:100A20009047206A401C2062381EA7F10107F4DCC1
:100A300007E0D4E9012118F805009047206A401C1E
:100A40002062281EA5F10105F3DC2046AFF30080EB
:100A50002078000602D50220BDE8F0870120FBE7E0
:100A600001694A1C02610878704700B58FB0CDE972
:100A700001310021059105497944CDE90310114662
:100A80006846FFF7F7FE0FB000BD0000E5FFFFFF6F
:100A900010B5436913B1AFF3008001E0FFF71EFF0B
:100AA000012010BD127800F124010A7000224A7062
:100AB0000122EDE711684FF0FF32E9E77546FFF7D5
:100AC00013FCAE4605006946534620F007008546F4
:100AD00018B020B5FFF75EFBBDE820404FF00006E0
:100AE0004FF000074FF000084FF0000B21F0070116
:100AF000AC46ACE8C009ACE8C009ACE8C009ACE859
:100B0000C0098D467047704790EA010F48BF81F0D9
:100B1000004100F1BA81421A3CBF801A89184FEA9D
:100B2000D0524FF07F4C1CEA410FA2EBD15318BFBB
:100B30009CEA026F00F03B804FF0004C4CEA002032
:100B40004CEA012121FA03FC10EB0C0C1ED202F13D
:100B5000FF325FEA1C2040EBC25038BF70471CF0E8
:100B60007F0F4FEA400C18BFBCF17F4F38BF704772
:100B7000C3F12003994008BF20F00100BCF17F4F72
:100B800038BF7047A0F1C04000F073B94FEA3C0095
:100B9000000A40EBC25028BF1CF0FF0F4FEA400C88
:100BA000E6D018BFBCF17F4F38BF7047EAE79CEA38
:100BB000026F05D010EA5C0F08BF00F000407047DC
:100BC00010B500F010F900BF64FBBE3E4FF47F0C7F
:100BD0001CEAD0121EBF1CEAD11392EA0C0F93EA52
:100BE0000C0F00F0858090EA010F48BF42F480723C
:100BF00040F4000C41F400002CF07F4120F07F40D5
:100C000000B58142A2EB03020FF2081CACEB504E80
:100C1000C0F100009EF800E04FEA4E0E00FB0EFC13
:100C200038BF49004FEA2C1C02F5FA020CFB0EF308
:100C30004FEACE1E4FEA112C4FEAC1210EEB635E44
:100C400042EB22420EFB0CFC4FEA1C5300FB03114B
:100C50004FEA112C4FEA01310EFB0CFC4FEADC4C41
:100C600000FB0C11C14228BF09184CEB03335DF89F
:100C700004EB10EB410143EBC250B2F57C0F38BFDF
:100C8000704729D512F0F00F1CBF00F1C04000F0F2
:100C900000407047008182838485868788898B8C99
:100CA0008D8E8F919293959697999A9C9D9FA0A2D5
:100CB000A3A5A7A8AAACAEB0B2B3B5B7B9BCBEC025
:100CC000C2C5C7C9CCCED1D4D7D9DCDFE2E6E9ECC6
:100CD000F0F3F7FAFE0000004FEA400C0CF1807CC4
:100CE000BCF17E4F28BF7047B0F1C04000F0C1B8E2
:100CF00090EA010F0CEAD11348BF42F480726245BA
:100D000038BF634507D213F47F0F16D080EA010085
:100D100000F00040704710B500F065F8097EFC3E19
:100D200000F005B880EA010000F00040704780EA5A
:100D3000010000F0004000F09CB812F47F0F04BFE7
:100D40000248704780EA010000F093B80000C07FBD
:100D5000C10DD1F19E0206DB4FEA002343F00043B0
:100D600023FA02F07047004207D54FEA4001B1F183
:100D7000FE4F02D24FF00000704710B500F033F87C
:100D800049922480002070476FEA200070470000DD
:100D900010F0004148BF4042B0FA80F310FA03F26D
:100DA000C3F19D030BD051EAC35101EB122053064E
:100DB00038BF704700F1010008BF20F00100704704
:100DC000B0FA80F310FA03F2C3F19D030AD0D905FB
:100DD00001EB1220530638BF704700F1010008BF35
:100DE00020F0010070470EF1020E2EF0030E5EF8A7
:100DF000044B244204D44FEA4102B2F17F4F11D890
:100E00004FEA4003B3F17F4F0CD80ED14FEAD07CAC
:100E1000B2F17F4F0CEB4C0C0CF1020C08BF4CEB09
:100E2000D17C04E04FF0080C01E04FEAD17C0CEBE0
:100E30004C0324FA03F404F00704B4F1040C06D2C2
:100E40000EEB840CBDE810404CF0010C6047DFE86D
:100E50000CF0070802024FF00040A0F5800010BD22
:100E60000846420018BFD2F1807288BF00F00040EF
:100E700010BDFF2141EAD050C005704790EA010F34
:100E800048BF81F000413FF546AE421A04D882F0D7
:100E90000042A0EB020011444FEAD0524FF07F4CC9
:100EA0001CEA410FA2EBD15318BF9CEA026F4AD053
:100EB0004FF0004C4CEA00204CEA012121FA03FCDF
:100EC000B0EB0C0C0FD412F0FE0F36D05FEA4C00E2
:100ED0001DD5001240EBC25038BF70471CF03F0FC9
:100EE00018BF70470BE0A2F101025FEA1C2040EB43
:100EF000C25038BF70471CF07F0F18BF7047C3F156
:100F00002003994014BF401E20F001007047800864
:100F10004FEA122308BF7047B0FA80FCA2EB0C0224
:100F2000CCF1280C60FA0CF093EA122F04BF00EB0E
:100F3000C25070474FEAC3707047130A5FEADC1073
:100F400008BF7047F6E79CEA026F04D010EA5C0F16
:100F500008BF0020704710B5FFF745FF40DFF63EA1
:100F600081F0004070470000880F00000000001072
:100F70005000000008010000D80F000050000010D1
:100F8000600200002401000030000000300000007A
:100F90003000000020000000280000000C000000CD
:100FA00006000000010000008000000000000000BA
:100FB0000000000000004144432056616C75653A12
:100FC000004E6F205369676E616C000000000000E6
:080FD0000000000000E1F5053E
:04000005000001797D
:00000001FF
